:200000000C9462000C948A000C948A000C948A000C948A000C948A000C948A000C948A00B8
:200020000C948A000C948A000C948A000C948A000C948A000C948A000C948A000C948A0070
:200040000C942C090C948A000C94FA080C94D4080C948A000C948A000C948A000C948A00DB
:200060000C948A000C948A00000000002300260029000000000800020100000304070000A1
:200080000000000000000102040810204080010204081020010204081020000000002400BF
:2000A00027002A0000000000250028002B000404040404040404020202020202030303033F
:2000C0000303AE0911241FBECFEFD8E0DEBFCDBF11E0A0E0B1E0ECE8FEE302C005900D9205
:2000E000A433B107D9F722E0A4E3B1E001C01D92A534B207E1F710E0C2E6D0E004C02197E9
:20010000FE010E943E1FC136D107C9F70E94190B0C94441F0C940000AF92BF92CF92DF9285
:20012000EF92FF920F931F93CF93DF936C017B018B01040F151FEB015E01AE18BF08C0171A
:20014000D10759F06991D601ED91FC910190F081E02DC6010995892B79F7C501DF91CF9174
:200160001F910F91FF90EF90DF90CF90BF90AF900895FC01538D448D252F30E0842F90E0F3
:20018000821B930B541710F0CF96089501970895FC01918D828D981761F0A28DAE0FBF2F7E
:2001A000B11D5D968C91928D9F5F9F73928F90E008958FEF9FEF0895FC01918D828D981782
:2001C00031F0828DE80FF11D858D90E008958FEF9FEF0895FC01918D228D892F90E0805C54
:2001E0009F4F821B91098F739927089585E591E00E94EA0021E0892B09F420E0822F089514
:2002000080E090E0892B29F00E94F60081110C9400000895FC01A48DA80FB92FB11DA35A42
:20022000BF4F2C91848D90E001968F739927848FA689B7892C93A089B1898C918370806481
:200240008C93938D848D981306C00288F389E02D80818F7D80830895EF92FF920F931F93B7
:20026000CF93DF93EC0181E0888F9B8D8C8D98131AC0E889F989808185FF15C09FB7F89450
:20028000EE89FF896083E889F98980818370806480839FBF81E090E0DF91CF911F910F915F
:2002A000FF90EF900895F62E0B8D10E00F5F1F4F0F731127E02E8C8D8E110CC00FB607FCF7
:2002C000FACFE889F989808185FFF5CFCE010E940A01F1CFEB8DEC0FFD2FF11DE35AFF4FA5
:2002E000F0829FB7F8940B8FEA89FB8980818062CFCFCF93DF93EC01888D8823B9F0AA893B
:20030000BB89E889F9898C9185FD03C0808186FD0DC00FB607FCF7CF8C9185FFF2CF808102
:2003200085FFEDCFCE010E940A01E9CFDF91CF910895833081F028F4813099F08230A9F017
:2003400008958730A9F08830C9F08430B1F4809180008F7D03C0809180008F77809380005C
:20036000089584B58F7784BD089584B58F7DFBCF8091B0008F778093B00008958091B000CC
:200380008F7DF9CFCF93DF93282F30E0F901EE58FF4F8491F901EA57FF4FD491F901E2558C
:2003A000FF4FC491CC23A1F081110E949901EC2FF0E0EE0FFF1FE859FF4FA591B491EC91BF
:2003C000ED2381E090E009F480E0DF91CF91089580E090E0FACF1F93CF93DF93282F30E0EC
:2003E000F901EE58FF4F8491F901EA57FF4FD491F901E255FF4FC491CC23A9F0162F811139
:200400000E949901EC2FF0E0EE0FFF1FEC55FF4FA591B4918FB7F894EC91111108C0D095F2
:20042000DE23DC938FBFDF91CF911F910895DE2BF8CF81E080931F0280910A028F3F21F080
:2004400060911E020C94EB01089510921F0280910A028F3F31F060911E0291E069270C94E1
:20046000EB010895809120028823D9F0109220028091210281110E94250210920F021092A4
:200480001002109211021092120280E593ECA0E0B0E08093F2019093F301A093F401B09363
:2004A000F50108950E943202E2EFF1E011A212A213A214A2158E168E178E10A20895CF93C2
:2004C000DF9390E0FC01EA57FF4F249182559F4FFC0184918823C9F090E0880F991FFC0102
:2004E000E656FF4FA591B491FC01EC55FF4FC591D49161110DC09FB7F8948C912095822318
:200500008C938881282328839FBFDF91CF910895623051F49FB7F8943C91822F8095832300
:200520008C93E8812E2BEFCF8FB7F894EC912E2B2C938FBFEACF8E50806480937C0080914C
:200540007A00806480937A0080917A0086FDFCCF809178009091790008953FB7F894809184
:20056000390190913A01A0913B01B0913C0126B5A89B05C02F3F19F00196A11DB11D3FBF7F
:20058000BA2FA92F982F8827BC01CD01620F711D811D911D42E0660F771F881F991F4A95E3
:2005A000D1F708958F929F92AF92BF92CF92DF92EF92FF924B015C010E94AD026B017C012B
:2005C0000E94AD026C197D098E099F09683E734081059105A8F321E0821A9108A108B108D8
:2005E00088EEC80E83E0D81EE11CF11C81149104A104B10429F7FF90EF90DF90CF90BF907D
:20060000AF909F908F9008952FB7F894609135017091360180913701909138012FBF0895B1
:20062000CF92DF92EF92FF92CF93DF93209106023091070240910802509109020E94D11E27
:200640000E94E41D6B01EB017093260260932502209741F4DF91CF91FF90EF90DF90CF90C2
:200660000C943202072E000C880B990B0E941C1E60930F02709310028093110290931202DC
:200680009601D7FE04C0222733272C193D09032E000C440B550B60E472E48FE090E00E94F5
:2006A000BF1C2093F2013093F3014093F4015093F5018FEF1C161D060CF481E080931C02FC
:2006C00081E08093200280911F02811108C0DF91CF91FF90EF90DF90CF900C941902DF9121
:2006E000CF91FF90EF90DF90CF900895809142028111ACC081E08093420249B129B130E032
:200700003695279536952795C9018270992742FB222720F9282B40913F02842F829583708E
:2007200090E0622F022E000C770B8617970709F48BC0322F33703295307F4F7C342B309310
:200740003F02880F991F880F991F822B482F440F81E696E1A4E9B9E404C0B595A7959795C5
:2007600087954A95D2F7837090913E02492F45954595459545954150840F8295807F9F7038
:20078000892B80933E02233021F037FF5DC021115BC080913E02807F09F456C00E94040342
:2007A000AB0180913E0221E087FF22E080913E02807F822B80933E0290913F0296FF07C0A5
:2007C00093E0921B9F70807F892B80933E0230913E02232F2F7020933E028091410220FB90
:2007E00087F9809341028091390290913A02EFEFFFEF30FD02C0E1E0F0E08E0F9F1F9093B0
:200800003A028093390280913C0290913D02233008F5816090933D0280933C0280913C026C
:2008200090913D022091430230914402FA01E21BF30B7E9798F4826090933D0280933C022F
:2008400050934402409343021092420280913E028F700895253010F79260DCCF8D7FECCFC4
:200860002F923F924F925F926F927F928F929F92AF92BF92CF92DF92EF92FF92CF93DF9366
:2008800000D000D0CDB7DEB780912002882309F439C180912D0290912E02892B09F032C199
:2008A0008091270290912802892B09F42BC10E94AD02C090F601D090F701E090F801F0903D
:2008C000F901AB01BC014C195D096E097F098091FA019091FB01092E000CAA0BBB0B4817A5
:2008E00059076A077B0708F40DC10E94AD026093F6017093F7018093F8019093F90180906C
:20090000170290901802A0901902B0901A028091130290911402A0911502B0911602881A3D
:20092000990AAA0ABB0AC0900F02D0901002E0901102F09012026091FA017091FB01072E93
:20094000000C880B990B0E941C1E2091FC013091FD014091FE015091FF010E94D11E6983DD
:200960007A838B839C83A7019601C701B6010E94D11E2091290230912A0240912B02509156
:200980002C020E94D11E2B013C01C501B401B7FE07C066277727CB01681979098A099B0907
:2009A0000E941C1E9B01AC01C301B2010E94CC1E87FD0EC020E030E0A901C701B6010E94E2
:2009C000CC1E87FD07C020E030E040E85FEB06C0B7FCF9CF20E030E040E85FE369817A81C0
:2009E0008B819C810E94D11EA70196010E94011D3B014C01A0902302B090240266277727CF
:200A00006A197B09072E000C880B990B0E941C1E6B017C019B01AC01B301C4010E946D1DA4
:200A200087FD12C0B501BB0C880B990B0E941C1E6B017C019B01AC01B301C4010E94CC1E99
:200A4000181614F063017401C601D70180930F0290931002A0931102B093120220E030E0E6
:200A6000A901B601C7010E94CC1E1816BCF420E030E040EA51E4B601C7010E94CC1E18163B
:200A8000BCF080E593ECA0E0B0E08093F2019093F301A093F401B093F50128C020E030E040
:200AA00040EA51ECB601C7010E946D1D87FFE9CF9601A70160E074E284E799E40E94721DF8
:200AC0004B015C0120E030E0A9010E94CC1E18160CF0E1C0C501B4010E94EB1D6093F20151
:200AE0007093F3018093F4019093F50120E030E0A901B601C7010E94CC1E87FDD0C081E0A4
:200B000080931C0280912202882309F4E9C080912D0290912E02892B09F4E2C00E94AD02E9
:200B2000C0900202D0900302E0900402F0900502AB01BC014C195D096E097F0980910002B9
:200B400090910102092E000CAA0BBB0B481759076A077B0708F4C4C00E94AD026093020239
:200B60007093030280930402909305026090250270902602B301072C000C880B990B0E941F
:200B80001C1E6B017C0180900F0290901002A0901102B0901202A50194010E94001D20E04E
:200BA00030E0A9010E94CC1E87FD7BC021E029836091000270910102072E000C880B990B14
:200BC0000E941C1E2091FC013091FD014091FE015091FF010E94D11E1B012C012981622F06
:200BE000220F770B880B990B0E941C1E9B01AC01C201B1010E94D11EA50194010E94011DE5
:200C00004B015C0180920F0290921002A0921102B092120220E030E0A9010E94CC1E87FD6F
:200C200043C081E080931C028981813009F03EC0A5019401C701B6010E946D1D18160CF05D
:200C400040C0C0900F02D0901002E0901102F090120220E030E0A901C701B6010E94CC1EE5
:200C600018160CF09DC020E030E040EA51E4C701B6010E94CC1E18160CF49CC080E593EC05
:200C8000A0E0B0E08093F2019093F301A093F401B093F50125C0C501B40190581DCF8FEF14
:200CA0002FCF8FEF898384CF8FEFBCCF29812F3F41F6A5019401C701B6010E94CC1E87FD37
:200CC000C0CFC0920F02D0921002E0921102F092120210922202672809F0B3CF0E943202ED
:200CE00080912002882309F4C3C00E94AD02C0900B02D0900C02E0900D02F0900E026C19E6
:200D00007D098E099F09C090F201D090F301E090F401F090F5016C157D058E059F0508F466
:200D2000A7C00E94AD0260930B0270930C0280930D0290930E0220912D0230912E028091B3
:200D4000130290911402A0911502B0911602232B09F052C04091170250911802609119025C
:200D600070911A02481759076A077B0709F044C00E94320280E00F900F900F900F90DF9185
:200D8000CF91FF90EF90DF90CF90BF90AF909F908F907F906F905F904F903F902F90089534
:200DA00020E030E040EA51ECC701B6010E946D1D87FF64CFA701960160E074E284E799E49B
:200DC0000E94721D6B017C0120E030E0A9010E94CC1E18166CF4C701B6010E94EB1D609309
:200DE000F2017093F3018093F4019093F50178CFC701B6019058F1CF20911C02422F022E0A
:200E0000000C550B660B770B840F951FA61FB71F8093130290931402A0931502B09316028B
:200E200080911D02121614F091E08927E0913102F09132028823F9F0809138029081892B38
:200E4000808380913702E0912F02F09130029081892B808385E18A95F1F700008091370271
:200E6000E0912F02F091300290818095892380838091200280CF80913802908180958923A9
:200E8000DFCF0E94190281E090E090932E0280932D0260E070E884E594EC0E9410031092A9
:200EA00021020E9404036093430170934401809345019093460161E086E00E94EB0164EF9C
:200EC00071E080E090E00E94D2020E94300488E00E94C201892BC9F76CE271E080E090E0F5
:200EE0000E94D20210923A02109239020E9476030E94300488E00E94C201892BB9F780918E
:200F0000390290913A0297FF03C0919581959109853F91405CF36CE271E080E090E00E9415
:200F2000D20260E086E00E94EB010E9452028091390290913A0297FF03C0919581959109DB
:200F4000909348018093470164EF71E080E090E00E94D20210923A021092390261E08FE075
:200F60000E94EB010C942502FC0101900020E9F73197AF01481B590BBC0185E591E00C9417
:200F80008C00CF93DF930E94B407EC0183E191E00E94B4078C0F9D1FDF91CF9108958F9290
:200FA0009F92AF92BF92CF92DF92EF92FF920F931F93CF93DF930E94190281E090E09093B1
:200FC0002E0280932D0260E070E088EC93E40E9410031092210210923A021092390261E0AE
:200FE00086E00E94EB0168EE73E080E090E00E94D2020E94040360934301709344018093D3
:201000004501909346010091390210913A02D0E0C0E0DD24D394EE24E394F12CCD2CD12C23
:20102000CC2009F487C00E9476030E9430040E9404038090430190904401A0904501B09077
:201040004601681979098A099B09653671058105910570F08091390290913A0280179107AA
:2010600039F40E94250286E191E00E94C107FFCF0E940403681979098A099B09653F714032
:2010800081059105A8F08091390290913A028C179D0771F00E940403609343017093440123
:2010A0008093450190934601C0913902D0913A020E9404038090430190904401A09045016C
:2010C000B0904601681979098A099B09653671058105910508F4A4CF6091390270913A024A
:2010E0006C1B7D0B77FF03C0719561957109072E000C880B990B0E941C1E4B015C01609144
:20110000490170914A0180914B0190914C019B01AC010E94011D9B01AC01C501B4010E94FF
:201120006D1D87FF7DCF8CE191E00E94C1070E945202DC2C0E941902F0922E02E0922D02FD
:2011400060E070E088EC93EC0E94100310922102DD2009F463CF0E94300488E00E94C201C3
:20116000892BB1F76CE271E080E090E00E94D20260E086E00E94EB010E94520210923A0226
:20118000109239020E94250261E08FE0DF91CF911F910F91FF90EF90DF90CF90BF90AF906F
:2011A0009F908F900C94EB011F920F920FB60F9211242F933F934F935F936F937F938F93CA
:2011C0009F93AF93BF93EF93FF9385E591E00E940A01FF91EF91BF91AF919F918F917F91AD
:2011E0006F915F914F913F912F910F900FBE0F901F9018951F920F920FB60F9211242F9379
:201200008F939F93EF93FF93E0916501F09166018081E0916B01F0916C0182FD1BC0908170
:2012200080916E018F5F8F7320916F01821741F0E0916E01F0E0EB5AFE4F958F80936E016B
:20124000FF91EF919F918F912F910F900FBE0F901F9018958081F4CF1F920F920FB60F928B
:2012600011242F933F938F939F93AF93BF938091350190913601A0913701B091380130917A
:20128000340123E0230F2D3758F50196A11DB11D209334018093350190933601A09337011A
:2012A000B09338018091390190913A01A0913B01B0913C010196A11DB11D8093390190938D
:2012C0003A01A0933B01B0933C01BF91AF919F918F913F912F910F900FBE0F901F9018950D
:2012E00026E8230F0296A11DB11DD2CFCF93DF93062E000C770B9B0122553F4FF9014491E3
:20130000E42FF0E0EE0FFF1FEC55FF4F45915491DC01AA0FBB1FAE50BE4FDE965C934E93C6
:20132000DD97F9012491E22FF0E0EE0FFF1FE656FF4FC591D491AF5BBF4FCD93DC936A57A1
:201340007F4FFB016491FC01E95CFD4F608380819881892B8883DF91CF910895CF93DF9343
:20136000109258011092570188EE93E0A0E0B0E08093590190935A01A0935B01B0935C0165
:2013800085E091E0909356018093550185EC90E0909362018093610184EC90E09093640150
:2013A0008093630180EC90E0909366018093650181EC90E0909368018093670182EC90E015
:2013C00090936A018093690186EC90E090936C0180936B0110926E0110926F0110927001DB
:2013E0001092710110923A021092390210923B0210923D0210923C021092420210924402B0
:201400001092430262E082E00E945F0262E083E00E945F0280913C0290913D0298609093CC
:201420003D0280933C0280913F028F7780933F028091410280788F6080934102809140028C
:2014400080788F608093400280E197E2A0E0B0E08093F2019093F301A093F401B093F501E8
:201460001092F6011092F7011092F8011092F90188E99AE39093FB018093FA011092FC0148
:201480001092FD011092FE011092FF01909301028093000210920202109203021092040239
:2014A0001092050284EE98E3AEE0B1E48093060290930702A0930802B09309028FEF809310
:2014C0000A0210920B0210920C0210920D0210920E0210920F021092100210921102109280
:2014E000120210921302109214021092150210921602109217021092180210921902109220
:201500001A0210921B0281E080931C0210921D0210921E0210921F0210922002109221028F
:2015200010922202CCE2D1E0D0932402C0932302109226021092250210922802109227025B
:201540001092290210922A0210922B0210922C0210922E0210922D026CE090E080E00E94F0
:2015600076096BE081E090E00E9476098AE080930A0261E00E945F02D0932402C0932302E1
:2015800080912D0290912E02892B51F58091270290912802892B21F585E09DE0A0E0B0E07F
:2015A0008093F2019093F301A093F401B093F50140911702509118026091190270911A029F
:2015C0008091130290911402A0911502B091160284179507A607B70754F18FEF80931C0277
:2015E00088EE93E09093FB018093FA018CE291E090932802809327028EE094E7AAEDBAE350
:201600008093290290932A02A0932B02B0932C0282E599E4ADE9B9E38093FC019093FD0125
:20162000A093FE01B093FF01DF91CF91089581E0D5CFCF93DF93CDB7DEB7A3970FB6F8944B
:20164000DEBF0FBECDBF789484B5826084BD84B5816084BD85B5826085BD85B5816085BD16
:2016600080916E00816080936E0010928100809181008260809381008091810081608093D8
:201680008100809180008160809380008091B10084608093B1008091B00081608093B000F5
:2016A00080917A00846080937A0080917A00826080937A0080917A00816080937A0080912A
:2016C0007A00806880937A001092C100E0916501F091660182E08083E0916101F0916201DD
:2016E0001082E0916301F09164018FEC808310926D01E0916901F0916A0186E08083E0916E
:201700006701F0916801808180618083E0916701F0916801808188608083E0916701F09189
:201720006801808180688083E0916701F091680180818F7D808362E085E00E945F0262E095
:2017400084E00E945F0260E087E00E945F0260E088E00E945F0260E089E00E945F0260E0E1
:2017600084E10E945F0260E085E10E945F0261E086E00E945F0261E08EE00E945F0261E0BB
:201780008FE00E945F0261E080E10E945F0281E080931E0284E10E949B027C014C01990F88
:2017A000AA08BB08B7FE40C56DE285E591E00E942C0122273327A901281939094A095B097A
:2017C00019A28E010F5D1F4F9AE0892E912CA12CB12CCA01B901A50194010E94DE1C605D34
:2017E000F80162938F01211531054105510589F70115110519F0C8010E94B40783E191E0B3
:201800000E94B407C7018C5F9340059788F410923D0180E090E0A0EFB0E48093490190937A
:201820004A01A0934B01B0934C0181E080934F01C701895F91400B9788F410923D0180E0AB
:2018400090E0A0EFB0E48093490190934A01A0934B01B0934C0182E080934F01C701835AB1
:2018600092400B97B8F410923D0180E090E0A0EFB0E48093490190934A01A0934B01B093E8
:201880004C0180E09EE1909348018093470183E080934F01C701855991400B97B8F4109228
:2018A0003D0180E090E0A0E2B1E48093490190934A01A0934B01B0934C0180E098E290932C
:2018C00048018093470184E080934F01C701885F92400B9790F481E080933D0180E090E074
:2018E000A0EFB0E48093490190934A01A0934B01B0934C0185E080934F01C701835B9140AC
:201900000B9790F481E080933D0180E090E0A0EFB0E48093490190934A01A0934B01B0936F
:201920004C0186E080934F01C7018B5292400B97C0F481E080933D0180E090E0A0EFB0E41F
:201940008093490190934A01A0934B01B0934C0180E09EE1909348018093470187E080938D
:201960004F01F3E6EF1AF1E0FF0A2BE0E216F104C0F481E080933D0180E090E0A0E2B1E416
:201980008093490190934A01A0934B01B0934C0180E098E2909348018093470188E0809351
:2019A0004F0187E00E94C20180934E0180914F018B7F8150823010F40E94410780914F016C
:2019C0009DEF980F923018F08750823010F40E94CF0761E08FE00E94EB0122242394312C6D
:2019E00085E10E949B02883EE3E09E0764F020915401222341F010925401109253011092B5
:201A00005201109251012091500121110C94DE1A9C01245F31402531310548F42091540154
:201A2000211105C021E020935401209353019C01225B32402F31310548F420915401211109
:201A400005C021E020935401209352018E5E9240459748F480915401811105C081E08093AB
:201A600054018093510180914F018B7F823009F0C5C285E00E94C201892B21F0809153011B
:201A8000882319F081E08093000184E00E94C201892B21F080915201882319F082E0809302
:201AA0000001809100018150823010F00C94BB1560E08FE00E94EB0161E080E10E94EB01B3
:201AC00061E086E00E94EB010E9425026CE271E080E090E00E94D2020E9404036093430143
:201AE00070934401809345019093460155245394552009F47FC20E9476030E940403009173
:201B00004301109144012091450130914601601B710B820B930B61347F418105910508F40D
:201B2000FAC08091390290913A02892BC1F423E0209300016CE271E080E090E00E94D2023D
:201B400060E086E00E94EB0160E080E10E94EB0161E08FE00E94EB010E945202512C809160
:201B6000390290913A02892B09F4D5C00E94190230922E0220922D0260E070E088E493E484
:201B80000E94100310922102C0903902D0903A0208EC10E0552009F4B8C00E9476030E9419
:201BA0003004E0903902F0903A0220E030E040E450E46091490170914A0180914B0190911D
:201BC0004C010E94D11E0E94E41D5B01C7018C199D0997FF03C0919581959109A816B90669
:201BE00074F54701F7FE04C0882499248E189F086091470170914801072E000C880B990BCA
:201C00000E941C1E20E030E040E05FE30E94D11E0E94E41D8616970694F4C8018D5E9A4FE4
:201C200087329A4060F40E5C1F4FB801012E000C880B990B0E941C1E0E9410036701E09051
:201C40003902F0903A028090470190904801C7018C199D0997FF03C0919581959109A816CC
:201C6000B9067CF5B401092C000C880B990B0E941C1E26E636E646E65FE30E94D11E0E9462
:201C8000E41DC701F7FE04C0882799278E199F0968177907B4F4C80117FF04C0882799274B
:201CA000801B910B8536910564F002531109B801012E000C880B990B0E941C1E0E9410031D
:201CC00067018091390290913A0297FF03C09195819591098815990509F0C1C26CE271E06E
:201CE00080E090E00E94D20260E086E00E94EB0160E080E10E94EB0161E08FE00E94EB01FD
:201D00000E9452020E942502512C64EF71E080E090E00E94D20220E030E040EA51EC609135
:201D2000490170914A0180914B0190914C010E94D11E0E94E41D2091390230913A022617E8
:201D400037070CF0A0C00E94190230922E0220922D0260E070E088E493E40E94100310928F
:201D600021020E940403609343017093440180934501909346016090390270903A0263018A
:201D8000F12CE12C08EC10E0552009F476C00E9476030E9430040E9404038090430190907F
:201DA0004401A0904501B0904601681979098A099B09693E73408105910508F457C2E11427
:201DC000F10489F48091390290913A026816790609F050C288E290E090933A028093390259
:201DE000EE24E394F12C88E00E94C201892B61F6A0903902B0903A02B7FE03C0B194A1948C
:201E0000B10820E030E040EF51E46091490170914A0180914B0190914C010E94D11E0E9410
:201E2000E41D6A157B050CF0AFCF6CE271E080E090E00E94D20260E086E00E94EB0160E0CF
:201E400080E10E94EB0161E08FE00E94EB0161E08EE00E94EB0168EC70E080E090E00E9402
:201E6000D20260E08EE00E94EB010E945202F3E0F09300010E942502512C64EF71E080E0BB
:201E800090E00E94D20220E030E040EA51E46091490170914A0180914B0190914C010E94F9
:201EA000D11E0E94E41D2091390230913A02621773070CF01DCE0E94190230922E0220926C
:201EC0002D0260E070E088E493EC0E941003109221020E94040360934301709344018093A3
:201EE0004501909346016090390270903A026301F12CE12C08E31FEF552009F475C00E94FB
:201F000076030E9430040E9404038090430190904401A0904501B0904601681979098A097D
:201F20009B09693E73408105910508F435C2E114F10489F48091390290913A026816790687
:201F400009F02EC288E290E090933A0280933902EE24E394F12C88E00E94C201892B61F693
:201F6000A0903902B0903A02B7FE03C0B194A194B10820E030E040EF51E46091490170911F
:201F80004A0180914B0190914C010E94D11E0E94E41D6A157B050CF0AFCF6CE271E080E07F
:201FA00090E00E94D20260E086E00E94EB0160E080E10E94EB0161E08FE00E94EB0161E059
:201FC0008EE00E94EB0168EC70E080E090E00E94D20260E08EE00E94EB010E945202F3E016
:201FE000F09300010E94250264EF71E080E090E00E94D20210923A021092390280914F018E
:202000008B7F813009F0B7C585E00E94C201892B29F080915301882309F472C360E08FE008
:202020000E94EB0161E080E10E94EB0161E086E00E94EB016CE271E080E090E00E94D202C8
:202040000E9404036093430170934401809345019093460182E090E011E0019709F44AC330
:202060000E94190230922E0220922D0260E070E088E493E40E94100310922102C090390258
:20208000D0903A02D7FE03C0D194C194D108E8ECEE2EF12C112309F415C20E9476030E94A7
:2020A0003004A0903902B0903A0220E030E040E450E46091490170914A0180914B01909198
:2020C0004C010E94D11E0E94E41D4B01C5018C199D0997FF03C091958195910988169906B6
:2020E0007CF53501B7FE04C0662477246A187B086091470170914801072E000C880B990B9B
:202100000E941C1E2AE939E949E15EE30E94D11E0E94E41D661677069CF4C7018D5E9A4FEA
:2021200087329A4068F488E2E80EF11CB7010F2C000C880B990B0E941C1E0E941003650116
:20214000A0903902B0903A026091470170914801072E000C880B990B0E941C1E2B013C0158
:20216000C5018C199D0997FF03C0919581959109881699065CF523E333E343EB5EE3C30142
:20218000B2010E94D11E0E94E41DC501B7FE04C0882799278A199B0968177907BCF4C701EC
:2021A000F7FE04C0882799278E199F098D3291406CF0F5E2EF1AF108B7010F2C000C880B51
:2021C000990B0E941C1E0E9410036501A0903902B0903A02B7FE03C0B194A194B1082FE8BB
:2021E00032EC45EF5EE3C301B2010E94D11E0E94E41DA616B70659F466E970E080E090E06C
:202200000E94D20260E086E00E94EB0110E087E00E94C20120914E012817190609F43ACFF4
:2022200021E020933E0136CFA501940119A28E010F5D1F4F8AE0882E912CA12CB12CCA01F5
:20224000B901A50194010E94DE1C605DF80162938F01211531054105510589F7C9CA88E02F
:202260000E94C201892B09F439CD94CCE114F10409F0B9CDE0903902F0903A0220E030E002
:2022800040E450E46091490170914A0180914B0190914C010E94D11E0E94E41D5B01C7013C
:2022A0008C199D0997FF03C0919581959109A816B90674F54701F7FE04C0882499248E18AE
:2022C0009F086091470170914801072E000C880B990B0E941C1E20E030E040E05FE30E946C
:2022E000D11E0E94E41D8616970694F4C8018D5E9A4F87329A4060F40E5C1F4FB801012E47
:20230000000C880B990B0E941C1E0E9410036701E0903902F0903A02C7018C199D0997FF71
:2023200003C0919581959109A816B90694F55701F7FE04C0AA24BB24AE18BF08609147017A
:2023400070914801072E000C880B990B0E941C1E26E636E646E65FE30E94D11E0E94E41D15
:202360006A157B05B4F4C80117FF04C088279927801B910B8536910564F002531109B801A0
:20238000012E000C880B990B0E941C1E0E9410036701F12CE12C27CDE114F10409F0DBCD29
:2023A000E0903902F0903A0220E030E040E450E46091490170914A0180914B0190914C01FC
:2023C0000E94D11E0E94E41D5B01C7018C199D0997FF03C0919581959109A816B90674F545
:2023E0004701F7FE04C0882499248E189F086091470170914801072E000C880B990B0E9489
:202400001C1E20E030E040E05FE30E94D11E0E94E41D8616970694F4C8018D5E9A4F8732C5
:202420009A4060F402531109B801012E000C880B990B0E941C1E0E9410036701E090390230
:20244000F0903A02C7018C199D0997FF03C0919581959109A816B90694F55701F7FE04C067
:20246000AA24BB24AE18BF086091470170914801072E000C880B990B0E941C1E26E636E623
:2024800046E65FE30E94D11E0E94E41D6A157B05B4F4C80117FF04C088279927801B910BAA
:2024A0008536910564F00E5C1F4FB801012E000C880B990B0E941C1E0E9410036701F12C5E
:2024C000E12C49CD80913D0181110C94141C0E94040300914301109144012091450130910C
:2024E0004601601B710B820B930B10E061347F418105910568F010923E0161E086E00E9490
:20250000EB016CE271E080E090E00E94D20211E087E00E94C20120914E012817190631F4AA
:2025200080913E01882311F40C943B1C10923E0161E086E00E94EB0161E08EE00E94EB0151
:2025400068EC70E080E090E00E94D20260E08EE00E94EB010E94190230922E0220922D02C5
:2025600060E070E088E493E40E94100310922102E0903902F0903A02F7FE03C0F194E19455
:20258000F10808EC10E00E9476030E943004C0903902D0903A0220E030E040E450E46091ED
:2025A000490170914A0180914B0190914C010E94D11E2B013C015601AE18BF08B7FE03C064
:2025C000B194A194B108C301B2010E94E41D6A157B0574F55601D7FE04C0AA24BB24AC18E5
:2025E000BD086091470170914801072E000C880B990B0E941C1E26E636E646E25FE30E940B
:20260000D11E0E94E41DA616B70694F4C8018D5E9A4F87329A4060F4085D1F4FB801012EE8
:20262000000C880B990B0E941C1E0E9410037601C0903902D0903A02B6016E197F0977FFEC
:2026400003C0719561957109072E000C880B990B0E941C1E9B01AC01C301B2010E946D1D01
:2026600087FF32C05601D7FE04C0AA24BB24AC18BD086091470170914801072E000C880B65
:20268000990B0E941C1E26E636E646E65FE30E94D11E0E94E41D6A157B05B4F4C80117FF6A
:2026A00004C088279927801B910B8D32914064F005521109B801012E000C880B990B0E948E
:2026C0001C1E0E941003760188E00E94C201892B09F059CF60E086E00E94EB0160E080E11D
:2026E0000E94EB0161E08FE00E94EB0181E090E010E0B3CC10923A02109239020E9425024A
:2027000084E00E94C201892B29F080915201882309F431C260E08FE00E94EB0161E080E145
:202720000E94EB0161E086E00E94EB016CE271E080E090E00E94D2020E9404036093430111
:2027400070934401809345019093460182E090E011E0019709F409C20E94190230922E029C
:2027600020922D0260E070E088E493EC0E94100310922102C0903902D0903A02D7FE03C0C4
:20278000D194C194D10878E3E72EFF24FA94112309F4C7C00E9476030E943004A090390271
:2027A000B0903A0220E030E040E450E46091490170914A0180914B0190914C010E94D11E52
:2027C0000E94E41D4B01C5018C199D0997FF03C0919581959109881699067CF53501B7FE31
:2027E00004C0662477246A187B086091470170914801072E000C880B990B0E941C1E2AE901
:2028000039E949E15EE30E94D11E0E94E41D661677069CF4C7018D5E9A4F87329A4068F4E3
:20282000F8E2EF1AF108B7010F2C000C880B990B0E941C1E0E9410036501A0903902B090E4
:202840003A026091470170914801072E000C880B990B0E941C1E2B013C01C5018C199D09EB
:2028600097FF03C0919581959109881699065CF523E333E343EB5EE3C301B2010E94D11E08
:202880000E94E41DC501B7FE04C0882799278A199B0968177907BCF4C701F7FE04C08827C1
:2028A00099278E199F098D3291406CF085E2E80EF11CB7010F2C000C880B990B0E941C1EA1
:2028C0000E9410036501A0903902B0903A02B7FE03C0B194A194B1082FE832EC45EF5EE3A1
:2028E000C301B2010E94D11E0E94E41DA616B70659F466E970E080E090E00E94D20260E042
:2029000086E00E94EB0110E087E00E94C20120914E012817190609F43ACF91E090933E01D0
:2029200036CF80913D018111ABC70E94040300914301109144012091450130914601601B61
:20294000710B820B930B10E061347F418105910568F010923E0161E086E00E94EB016CE2B3
:2029600071E080E090E00E94D20211E087E00E94C20120914E012817190629F480913E0138
:20298000882309F4A4C710923E0161E086E00E94EB0161E08EE00E94EB0168EC70E080E0CD
:2029A00090E00E94D20260E08EE00E94EB010E94190230922E0220922D0260E070E088E469
:2029C00093EC0E94100310922102E0903902F0903A02F7FE03C0F194E194F10808E31FEFF3
:2029E0000E9476030E943004C0903902D0903A0220E030E040E450E46091490170914A01D0
:202A000080914B0190914C010E94D11E2B013C015601AE18BF08B7FE03C0B194A194B10862
:202A2000C301B2010E94E41D6A157B0574F55601D7FE04C0AA24BB24AC18BD0860914701B5
:202A400070914801072E000C880B990B0E941C1E26E636E646E25FE30E94D11E0E94E41D12
:202A6000A616B70694F4C8018D5E9A4F87329A4060F408521109B801012E000C880B990B32
:202A80000E941C1E0E9410037601C0903902D0903A02B6016E197F0977FF03C0719561950C
:202AA0007109072E000C880B990B0E941C1E9B01AC01C301B2010E946D1D87FF32C056018D
:202AC000D7FE04C0AA24BB24AC18BD086091470170914801072E000C880B990B0E941C1E50
:202AE00026E636E646E65FE30E94D11E0E94E41D6A157B05B4F4C80117FF04C08827992753
:202B0000801B910B8D32914064F00B5D1F4FB801012E000C880B990B0E941C1E0E94100308
:202B2000760188E00E94C201892B09F059CF60E086E00E94EB0160E080E10E94EB0161E0D8
:202B40008FE00E94EB0161E08EE00E94EB0168EC70E080E090E00E94D20260E08EE00E9401
:202B6000EB0181E090E010E0F4CD10923A02109239020E94250280914F019DEF980F92300D
:202B800020F08750823008F0E5C485E00E94C201892B29F080915301882309F468C260E0ED
:202BA0008FE00E94EB0161E080E10E94EB0161E086E00E94EB016CE271E080E090E00E94A2
:202BC000D2020E940403609343017093440180934501909346010E94040360933F01709357
:202BE0004001809341019093420182E090E011E0019709F436C20E94190230922E02209228
:202C00002D0260E070E088E493E40E941003109221024090390250903A0257FE03C0519474
:202C2000419451085BA24AA268ECE62EF12C112309F401C10E9476030E943004A0903902A9
:202C4000B0903A0220E030E040E450E46091490170914A0180914B0190914C010E94D11EAD
:202C60000E94E41D6B01C5018419950997FF03C0919581959109C816D9067CF54501B7FEEC
:202C800004C0882499248A189B086091470170914801072E000C880B990B0E941C1E2DECD2
:202CA0003CEC4CE45DE30E94D11E0E94E41D861697069CF4C7018D5E9A4F87329A4068F4F4
:202CC000F8E2EF0EF11CB7010F2C000C880B990B0E941C1E0E9410032501609039027090F8
:202CE0003A028090470190904801C3018419950997FF03C0919581959109092C000CAA08B6
:202D0000BB08C816D9066CF5630177FE04C0CC24DD24C618D708C501B4010E941C1E2DEC17
:202D20003CEC4CE45EE30E94D11E0E94E41D6C157D05BCF4C701F7FE04C0882799278E197C
:202D40009F098D3291406CF085E2E81AF108B7010F2C000C880B990B0E941C1E0E941003B6
:202D600023010E94040320913F01309140014091410150914201621B730B840B950B6D3293
:202D8000714081059105D0F0C0903902D0903A02D7FE03C0D194C194D1088AA19BA1439614
:202DA0008C159D05DCF166E970E080E090E00E94D20260E086E00E94EB0110E0C09039026F
:202DC000D0903A02D7FE03C0D194C194D108C501B4010E941C1E20E030E040E85EE30E94BA
:202DE000D11E0E94E41DC616D70659F466E970E080E090E00E94D20260E086E00E94EB0122
:202E000010E087E00E94C20120914E012817190609F40DCFF1E0F0933E0109CF0E940403AB
:202E200060933F01709340018093410190934201DBA2CAA2C3CF80913D0181114CC50E9451
:202E4000040300914301109144012091450130914601601B710B820B930B10E061347F414A
:202E60008105910568F010923E0161E086E00E94EB016CE271E080E090E00E94D20211E0F2
:202E800087E00E94C20120914E012817190629F480913E01882309F445C510923E0161E0C7
:202EA00086E00E94EB0161E08EE00E94EB0168EC70E080E090E00E94D20260E08EE00E94A7
:202EC000EB010E94190230922E0220922D0260E070E088E493EC0E94100310922102E09011
:202EE0003902F0903A02F7FE03C0F194E194F10808E31FEF0E9476030E943004C0903902BB
:202F0000D0903A0220E030E040E450E46091490170914A0180914B0190914C010E94D11ECA
:202F20002B013C015601AE18BF08B7FE03C0B194A194B108C301B2010E94E41D6A157B0580
:202F400074F55601D7FE04C0AA24BB24AC18BD086091470170914801072E000C880B990BE7
:202F60000E941C1E2DEC3CEC4CE45EE30E94D11E0E94E41D6A157B0594F4C8018D5E9A4F6B
:202F800087329A4060F408521109B801012E000C880B990B0E941C1E0E9410037601C09053
:202FA0003902D0903A02B6016E197F0977FF03C0719561957109072E000C880B990B0E94AB
:202FC0001C1E9B01AC01C301B2010E946D1D87FF32C05601D7FE04C0AA24BB24AC18BD082D
:202FE0006091470170914801072E000C880B990B0E941C1E2DEC3CEC4CE45DE30E94D11EB8
:203000000E94E41DA616B706B4F4C80117FF04C088279927801B910B8D32914064F00B5D57
:203020001F4FB801012E000C880B990B0E941C1E0E941003760188E00E94C201892B09F075
:2030400059CF60E086E00E94EB0160E080E10E94EB0161E08FE00E94EB0181E090E010E0E6
:20306000C7CD10923A02109239020E94250284E00E94C201892B29F080915201882309F496
:2030800069C260E08FE00E94EB0161E080E10E94EB0161E086E00E94EB016CE271E080E064
:2030A00090E00E94D2020E940403609343017093440180934501909346010E9404036093A3
:2030C0003F0170934001809341019093420182E090E011E0019709F437C20E9419023092E1
:2030E0002E0220922D0260E070E088E493EC0E941003109221024090390250903A0257FE4E
:2031000003C05194419451085BA24AA258E3E52EFF24FA94112309F401C10E9476030E9441
:203120003004A0903902B0903A0220E030E040E450E46091490170914A0180914B01909107
:203140004C010E94D11E0E94E41D6B01C5018419950997FF03C0919581959109C816D90695
:203160007CF54501B7FE04C0882499248A189B086091470170914801072E000C880B990B76
:203180000E941C1E2DEC3CEC4CE45DE30E94D11E0E94E41D861697069CF4C7018D5E9A4F09
:2031A00087329A4068F488E2E81AF108B7010F2C000C880B990B0E941C1E0E9410032501CE
:2031C0006090390270903A028090470190904801C3018419950997FF03C091958195910999
:2031E000092C000CAA08BB08C816D9066CF5630177FE04C0CC24DD24C618D708C501B40135
:203200000E941C1E2DEC3CEC4CE45EE30E94D11E0E94E41D6C157D05BCF4C701F7FE04C0B8
:20322000882799278E199F098D3291406CF0F5E2EF0EF11CB7010F2C000C880B990B0E942B
:203240001C1E0E94100323010E94040320913F01309140014091410150914201621B730B8D
:20326000840B950B6D32714081059105D0F0C0903902D0903A02D7FE03C0D194C194D108A1
:203280008AA19BA143968C159D05DCF166E970E080E090E00E94D20260E086E00E94EB01C5
:2032A00010E0C0903902D0903A02D7FE03C0D194C194D108C501B4010E941C1E20E030E065
:2032C00040E85EE30E94D11E0E94E41DC616D70659F466E970E080E090E00E94D20260E026
:2032E00086E00E94EB0110E087E00E94C20120914E012817190609F40DCF81E080933E0134
:2033000009CF0E94040360933F01709340018093410190934201DBA2CAA2C3CF80913D0130
:20332000811103C30E94040300914301109144012091450130914601601B710B820B930BB0
:2033400010E061347F418105910568F010923E0161E086E00E94EB016CE271E080E090E02F
:203360000E94D20211E087E00E94C20120914E012817190629F480913E01882309F4FCC2E9
:2033800010923E0161E086E00E94EB0161E08EE00E94EB0168EC70E080E090E00E94D202F0
:2033A00060E08EE00E94EB010E94190230922E0220922D0260E070E088E493E40E94100319
:2033C00010922102E0903902F0903A02F7FE03C0F194E194F10808EC10E00E9476030E9475
:2033E0003004C0903902D0903A0220E030E040E450E46091490170914A0180914B01909105
:203400004C010E94D11E2B013C015601AE18BF08B7FE03C0B194A194B108C301B2010E94BD
:20342000E41D6A157B0574F55601D7FE04C0AA24BB24AC18BD086091470170914801072E45
:20344000000C880B990B0E941C1E2DEC3CEC4CE45EE30E94D11E0E94E41D6A157B0594F4E0
:20346000C8018D5E9A4F87329A4060F4085D1F4FB801012E000C880B990B0E941C1E0E944C
:2034800010037601C0903902D0903A02B6016E197F0977FF03C0719561957109072E000CC5
:2034A000880B990B0E941C1E9B01AC01C301B2010E946D1D87FF32C05601D7FE04C0AA24D7
:2034C000BB24AC18BD086091470170914801072E000C880B990B0E941C1E2DEC3CEC4CE43C
:2034E0005DE30E94D11E0E94E41DA616B706B4F4C80117FF04C088279927801B910B8D322F
:20350000914064F005521109B801012E000C880B990B0E941C1E0E941003760188E00E94D8
:20352000C201892B09F059CF60E086E00E94EB0160E080E10E94EB0161E08FE00E94EB0152
:2035400081E090E010E0C6CD10923A02109239020E94250287E00E94C20120914E01281788
:20356000190661F161E08FE00E94EB0162E370E080E090E00E94D20260E08FE00E94EB0184
:2035800062E370E080E090E00E94D20261E08FE00E94EB0162E370E080E090E00E94D20237
:2035A00060E08FE00E94EB0162E370E080E090E00E94D20261E08FE00E94EB0189E00E94AA
:2035C000C201892B51F080915101882309F4DFC080915401882309F4DAC0809150018111ED
:2035E000D6C081E08093500189E00E94C201892B19F484E080934D0180915101882339F0E5
:2036000080915401882319F086E080934D0184E291E00E94C10780914F019DEF980F923032
:2036200020F08750823008F050C060E08FE00E94EB0161E080E10E94EB0161E086E00E9433
:20364000EB016CE271E080E090E00E94D20210923A02109239020E94190230922E0220927D
:203660002D0260E070E088E493E40E941003109221020E9476030E943004009139021091D0
:203680003A0217FF03C011950195110920E030E040E853E46091490170914A0180914B016C
:2036A00090914C010E94D11E0E94E41D0617170701F76CE271E080E090E00E94D20260E010
:2036C00086E00E94EB010E94250280914F018B7F8150823008F048C060E08FE00E94EB0102
:2036E00061E080E10E94EB0161E086E00E94EB016CE271E080E090E00E94D20210923A02A2
:20370000109239020E94190230922E0220922D0260E070E086E194EC0E941003109221024B
:203720000E9476030E9430042091390230913A0237FF03C031952195310980914701909186
:20374000480197FD0196959587952817390741F76CE271E080E090E00E94D20260E086E06D
:203760000E94EB010E94250280914D01863009F052C085E10E949B02883E9340ACF38091E4
:203780005401882389F3109254011092510189E00E94C201892B21F080914D01843061F0CB
:2037A00080915101811127C080915401811123C080914D018630F9F4809150018823D9F07A
:2037C0001092500110924D0160E080E10E94EB0180914F018B7F8150823010F40E944107FB
:2037E00080914F019DEF980F923018F08750823010F40E94CF0780E090E0892B11F40C943D
:20380000F00C0E94F600882311F40C94F00C0E9400000C94F00C843009F0B9CF89E00E944A
:20382000C201892BD9F3B3CF85E00E94C20110E0892B39F010923E0161E086E00E94EB0116
:2038400011E087E00E94C20120914E012817190621F480913E01882371F061E08EE00E948B
:20386000EB0166E970E080E090E00E94D20260E08EE00E94EB0111110C94AA120C943010DD
:2038800084E00E94C20110E0892B39F010923E0161E086E00E94EB0111E087E00E94C201BF
:2038A00020914E012817190621F480913E01882371F061E08EE00E94EB0166E970E080E0FD
:2038C00090E00E94D20260E08EE00E94EB0111116EC80C94AC1385E00E94C20110E0892BA1
:2038E00039F010923E0161E086E00E94EB0111E087E00E94C20120914E012817190621F459
:2039000080913E01882371F061E08EE00E94EB0166E970E080E090E00E94D20260E08EE07B
:203920000E94EB011111CDCA66C984E00E94C20110E0892B39F010923E0161E086E00E9451
:20394000EB0111E087E00E94C20120914E012817190621F480913E01882371F061E08EE040
:203960000E94EB0166E970E080E090E00E94D20260E08EE00E94EB01111116CDAECB052EE7
:2039800097FB1EF400940E94D61C57FD07D00E94DE1C07FC03D04EF40C94D61C5095409530
:2039A000309521953F4F4F4F5F4F089590958095709561957F4F8F4F9F4F0895A1E21A2EDE
:2039C000AA1BBB1BFD010DC0AA1FBB1FEE1FFF1FA217B307E407F50720F0A21BB30BE40BDF
:2039E000F50B661F771F881F991F1A9469F760957095809590959B01AC01BD01CF01089597
:203A00005058BB27AA270E94181D0C94921E0E94841E38F00E948B1E20F039F49F3F19F445
:203A200026F40C94811E0EF4E095E7FB0C947B1EE92F0E94A31E58F3BA1762077307840796
:203A4000950720F079F4A6F50C94C51E0EF4E0950B2EBA2FA02D0B01B90190010C01CA019A
:203A6000A0011124FF27591B99F0593F50F4503E68F11A16F040A22F232F342F4427585F82
:203A8000F3CF469537952795A795F0405395C9F77EF41F16BA0B620B730B840BBAF091507C
:203AA000A1F0FF0FBB1F661F771F881FC2F70EC0BA0F621F731F841F48F487957795679565
:203AC000B795F7959E3F08F0B0CF9395880F08F09927EE0F9795879508950E94571E08F44E
:203AE00081E008950E94861D0C94921E0E948B1E58F00E94841E40F029F45F3F29F00C94B8
:203B00007B1E51110C94C61E0C94811E0E94A31E68F39923B1F3552391F3951B550BBB27DB
:203B2000AA2762177307840738F09F5F5F4F220F331F441FAA1FA9F335D00E2E3AF0E0E8E4
:203B400032D091505040E695001CCAF72BD0FE2F29D0660F771F881FBB1F26173707480723
:203B6000AB07B0E809F0BB0B802DBF01FF2793585F4F3AF09E3F510578F00C947B1E0C9472
:203B8000C61E5F3FE4F3983ED4F3869577956795B795F7959F5FC9F7880F911D96958795EA
:203BA00097F90895E1E0660F771F881FBB1F621773078407BA0720F0621B730B840BBA0BED
:203BC000EE1F88F7E09508950E94EB1D6894B1110C94C61E08950E94AB1E88F09F5798F05D
:203BE000B92F9927B751B0F0E1F0660F771F881F991F1AF0BA95C9F714C0B13091F00E9449
:203C0000C51EB1E008950C94C51E672F782F8827B85F39F0B93FCCF3869577956795B395C2
:203C2000D9F73EF490958095709561957F4F8F4F9F4F0895E89409C097FB3EF490958095D3
:203C4000709561957F4F8F4F9F4F9923A9F0F92F96E9BB279395F695879577956795B795CE
:203C6000F111F8CFFAF4BB0F11F460FF1BC06F5F7F4F8F4F9F4F16C0882311F096E911C04A
:203C8000772321F09EE8872F762F05C0662371F096E8862F70E060E02AF09A95660F771FD2
:203CA000881FDAF7880F9695879597F90895990F0008550FAA0BE0E8FEEF16161706E807CB
:203CC000F907C0F012161306E407F50798F0621B730B840B950B39F40A2661F0232B242B0F
:203CE000252B21F408950A2609F4A140A6958FEF811D811D089597F99F6780E870E060E094
:203D000008959FEF80EC089500240A941616170618060906089500240A941216130614067D
:203D200005060895092E0394000C11F4882352F0BB0F40F4BF2B11F460FF04C06F5F7F4F63
:203D40008F4F9F4F089557FD9058440F551F59F05F3F71F04795880F97FB991F61F09F3FC3
:203D600079F087950895121613061406551FF2CF4695F1DF08C0161617061806991FF1CF3F
:203D800086957105610508940895E894BB2766277727CB0197F908950E94571E08F48FEFE0
:203DA00008950E94E41E0C94921E0E94841E38F00E948B1E20F0952311F00C947B1E0C9419
:203DC000811E11240C94C61E0E94A31E70F3959FC1F3950F50E0551F629FF001729FBB27B0
:203DE000F00DB11D639FAA27F00DB11DAA1F649F6627B00DA11D661F829F2227B00DA11D1C
:203E0000621F739FB00DA11D621F839FA00D611D221F749F3327A00D611D231F849F600D1B
:203E2000211D822F762F6A2F11249F5750409AF0F1F088234AF0EE0FFF1FBB1F661F771F3A
:203E4000881F91505040A9F79E3F510580F00C947B1E0C94C61E5F3FE4F3983ED4F386951D
:203E600077956795B795F795E7959F5FC1F7FE2B880F911D9695879597F90895EE0FFF1F33
:203E80000590F491E02D0994F894FFCF03000000002C018C00B9007901EA00C800DC000D7A
:203EA0000A006572656E63007570657273796100504F574552206F7220414C4552540000BC
:203EC000FFFFFFFFFFFFFFFFFFFFFFFFFFFFFFFFFFFFFFFFFFFFFFFFFFFFFFFFFFFFFFFF02
:203EE000FFFFFFFFFFFFFFFFFFFFFFFFFFFFFFFFFFFFFFFFFFFFFFFFFFFFFFFFFFFFFFFFE2
:203F0000FFFFFFFFFFFFFFFFFFFFFFFFFFFFFFFFFFFFFFFFFFFFFFFFFFFFFFFFFFFFFFFFC1
:203F2000FFFFFFFFFFFFFFFFFFFFFFFFFFFFFFFFFFFFFFFFFFFFFFFFFFFFFFFFFFFFFFFFA1
:207800000C94343C0C94513C0C94513C0C94513C0C94513C0C94513C0C94513C0C94513C1D
:207820000C94513C0C94513C0C94513C0C94513C0C94513C0C94513C0C94513C0C94513CE0
:207840000C94513C0C94513C0C94513C0C94513C0C94513C0C94513C0C94513C0C94513CC0
:207860000C94513C0C94513C11241FBECFEFD8E0DEBFCDBF11E0A0E0B1E0ECE9FFE702C07E
:2078800005900D92A230B107D9F712E0A2E0B1E001C01D92AD30B107E1F70E942D3D0C94CC
:2078A000CC3F0C94003C982F9595959595959595905D8F708A307CF0282F295A8091C000B5
:2078C00085FFFCCF9093C6008091C00085FFFCCF2093C6000895282F205DF0CF982F8091CF
:2078E000C00085FFFCCF9093C6000895EF92FF920F931F93EE24FF2487018091C00087FD7B
:2079000017C00894E11CF11C011D111D81E4E81682E4F8068FE0080780E0180770F3E09106
:207920000401F091050109958091C00087FFE9CF8091C6001F910F91FF90EF9008950E949A
:20794000763C982F8091C00085FFFCCF9093C60091362CF490330CF09053892F08959755DB
:20796000892F08951F930E949F3C182F0E949F3C1295107F810F1F9108951F93182F882308
:2079800021F00E94763C1150E1F71F9108951F93182F0E94763C803249F0809103018F5FC1
:2079A000809303018530C1F01F9108958091C00085FFFCCF84E18093C6008091C00085FF4A
:2079C000FCCF1093C6008091C00085FFFCCF80E18093C6001F910895E0910401F0910501CF
:2079E00009951F9108950E94763C803241F0809103018F5F80930301853081F00895809177
:207A0000C00085FFFCCF84E18093C6008091C00085FFFCCF80E18093C6000895E0910401AC
:207A2000F09105010995089540E951E08823A1F02D9A28EE33E0FA013197F1F72150304072
:207A4000D1F72D9828EE33E0FA013197F1F721503040D1F7815061F708953F924F925F92B3
:207A60006F927F928F929F92AF92BF92CF92DF92EF92FF920F931F93CF93DF93000080E1A3
:207A80008093C4001092C50088E18093C10086E08093C2005098589A259A81E00E94143D43
:207AA00024E1F22E9EE1E92E85E9D82E0FE0C02E10E1B12EAA24A394B1E49B2EA6E58A2E44
:207AC000F2E57F2EE0E26E2E79E4572E63E5462E50E5352E0E94763C8033B1F18133B9F187
:207AE000803409F46FC0813409F476C0823409F485C0853409F488C0803531F1823521F128
:207B0000813511F1853509F485C0863509F48DC0843609F496C0843709F403C1853709F46A
:207B200072C1863709F466C0809103018F5F80930301853079F6E0910401F0910501099559
:207B40000E94763C803351F60E94F33CC3CF0E94763C803249F78091C00085FFFCCFF0928C
:207B6000C6008091C00085FFFCCF9092C6008091C00085FFFCCF8092C6008091C00085FFEA
:207B8000FCCF7092C6008091C00085FFFCCF6092C6008091C00085FFFCCF5092C6008091A1
:207BA000C00085FFFCCF4092C6008091C00085FFFCCF3092C6008091C00085FFFCCFB09214
:207BC000C60088CF0E94763C863808F4BDCF0E94763C0E94F33C7ECF0E94763C803809F473
:207BE0009CC0813809F40BC1823809F43CC1883909F48FC080E00E94C73C6CCF84E10E949F
:207C0000BD3C0E94F33C66CF85E00E94BD3C0E94F33C60CF0E94763C809306010E94763CA3
:207C2000809307010E94F33C55CF0E94763C803309F41DC183E00E94BD3C80E00E94C73C4F
:207C400049CF0E94763C809309020E94763C8093080280910C028E7F80930C020E94763C88
:207C6000853409F415C18091080290910902892B89F000E010E00E94763CF801E85FFE4F53
:207C800080830F5F1F4F80910802909109020817190788F30E94763C803209F045CF8091E0
:207CA0000C0280FF01C16091060170910701660F771F7093070160930601A0910802B091E8
:207CC00009021097C9F0E8E0F1E09B01AD014E0F5F1FF999FECF32BD21BD819180BDFA9A6C
:207CE000F99A2F5F3F4FE417F50799F76A0F7B1F70930701609306018091C00085FFFCCF16
:207D0000F092C6008091C00085FFFCCFB092C600E1CE83E00E94C73CDDCE82E00E94C73C8A
:207D2000D9CE0E94763C809309020E94763C809308028091060190910701880F991F909306
:207D40000701809306010E94763C853409F4A6C080910C028E7F80930C020E94763C80323E
:207D600009F0B8CE8091C00085FFFCCFF092C600609108027091090261157105B9F140E05F
:207D800050E080910C02A82FA170B82FB27011C0BB2309F45CC0E0910601F0910701319613
:207DA000F0930701E09306014F5F5F4F46175707E8F4AA2369F3F999FECF209106013091CA
:207DC000070132BD21BDF89A90B58091C00085FFFCCF9093C6002F5F3F4F30930701209354
:207DE00006014F5F5F4F4617570718F38091C00085FDE5CE8091C00085FFF8CFE0CE81E029
:207E00000E94C73C67CE0E94763C803209F08CCE8091C00085FFFCCFF092C6008091C000F6
:207E200085FFFCCFE092C6008091C00085FFFCCFD092C6008091C00085FFFCCFC092C6003B
:207E40008091C00085FFFCCFB092C60043CEE0910601F091070194918091C00085FFFCCFA3
:207E60009093C6009CCF80E10E94C73C33CE0E94763C0E94763C182F0E94763C112309F433
:207E800083C0113009F484C08FE00E94C73C22CE80910C02816080930C02E5CE80910C0226
:207EA000816080930C0259CF809107018823880F880B8A2180930B0280910601909107019E
:207EC000880F991F90930701809306018091080280FF09C0809108029091090201969093AA
:207EE000090280930802F894F999FECF1127E0910601F0910701C8E0D1E0809108029091A1
:207F00000902103091F40091570001700130D9F303E000935700E895009157000170013067
:207F2000D9F301E100935700E895099019900091570001700130D9F301E000935700E8954C
:207F40001395103498F011270091570001700130D9F305E000935700E8950091570001707A
:207F60000130D9F301E100935700E8953296029709F0C7CF103011F00296E5CF11248091F8
:1E7F8000C00085FFB9CEBCCE8EE10E94C73CA2CD85E90E94C73C9ECDF894FFCF8000B3
:00000001FF
